:100000000C942A000C943F000C943F000C943F0089
:100010000C943F000C943F000C943F000C943F0064
:100020000C943F000C943F000C943F000C943F0054
:100030000C943F000C943F000C943F000C943F0044
:100040000C943F000C943F000C943F000C943F0034
:100050000C943F0011241FBECFE5D8E0DEBFCDBF1A
:1000600010E0A0E6B0E0E4E3F2E002C005900D92FB
:10007000A436B107D9F70E947B000C9418010C94A8
:100080000000959A0000000082B3807C82BB089536
:100090001ABA979A82B3887F82BB02C00E9441003D
:1000A000DF99FCCF8FEF8ABB08951F93182F0E9412
:1000B00048001BBB82B38B7782BB0E9441001BBAF6
:1000C0001F9108951F93182F0E9448001BBB9798FB
:1000D000929A0E9441001BBA1F910895CF93DF931B
:1000E000EC0103C021960E94620088818823D1F729
:1000F000DF91CF910895AF92BF92CF92DF92FF929E
:100100000F931F93DF93CF9300D00F92CDB7DEB73D
:1001100084EA81BB80E395E70197F1F781E00E94D3
:10012000550080EA9FE00197F1F788E30E945500AF
:1001300085E88A95F1F78FE00E94550000E010E015
:100140006E010894C11CD11C98ECA92EB12C80E83A
:10015000F82EF00E8F2D0E94550080E690E00E9450
:100160006E00C801B6014AE050E00E94D3008EEC58
:100170000E945500C6010E946E0084EF91E0F501D7
:100180003197F1F70197D9F78F2D0E94550082E63C
:1001900090E00E946E000F5F1F4F05351105BCF205
:1001A00000E010E0D4CFFB019F01E8944230C4F09E
:1001B0004532B4F44A3029F497FB1EF490958195AA
:1001C0009F4F642F77270E940401805D8A330CF0D3
:1001D000895D8193CB010097A1F716F45DE25193FD
:1001E0001082C9010C94F400DC01FC01672F7191AD
:1001F0007723E1F7329704C07C916D93708362910D
:10020000AE17BF07C8F30895AA1BBB1B51E107C077
:10021000AA1FBB1FA617B70710F0A61BB70B881F96
:10022000991F5A95A9F780959095BC01CD01089525
:04023000F894FFCF70
:04023400780020002E
:00000001FF
