:100000000C942A000C9434000C9434000C943400AA
:100010000C9434000C9434000C9434000C94340090
:100020000C9434000C9434000C9434000C94340080
:100030000C9434000C9434000C9434000C94340070
:100040000C9434000C9434000C9434000C94340060
:100050000C94340011241FBECFE5D8E0DEBFCDBF25
:100060000E9436000C9485000C9400008FEF87BB33
:1000700087E081BB28EE33E0B1E040E25EE4A8E037
:10008000F1E2E9E368EC70E005C0CB010197F1F71C
:100090002150304021153105C1F7B8BBCA01019785
:1000A000F1F7909ACA010197F1F7919ACA01019765
:1000B000F1F7929ACA010197F1F7939ACA01019751
:1000C000F1F7A2BBF8BBCA010197F1F7E8BBCA017F
:1000D0000197F1F718BA12BA28EE33E0D6CF98B3E9
:1000E00021E030E002C0220F331F8A95E2F7922709
:1000F00098BB80E197E20197F1F788B3282728BBE6
:0E01000080E991E00197F1F70895F894FFCFA0
:00000001FF
