:100000000C942A000C943C000C943C000C943C0092
:100010000C943C000C943C000C943C000C943C0070
:100020000C943C000C943C000C943C000C943C0060
:100030000C943C000C943C000C943C000C943C0050
:100040000C943C000C943C000C943C000C943C0040
:100050000C943C0011241FBECFE5D8E0DEBFCDBF1D
:1000600010E0A0E6B0E001C01D92AA36B107E1F7AA
:100070000E948D000C94AA000C9400000F931F9313
:10008000DF93CF930F92CDB7DEB78C01698389815F
:1000900090E002C0959587954A95E2F7F801EE0F3A
:1000A000FF1F80FF1CC0DF01A05ABF4F8D919C91A4
:1000B0001197019611969C938E93EC59FF4F1182E4
:1000C00010822817390714F5F801E859FF4F80818D
:1000D0008823E1F481E080831D921C9218C0DF0127
:1000E000AC59BF4F8D919C911197019611969C939D
:1000F0008E93E05AFF4F118210822817390734F48B
:1001000008591F4FF80110821D921C9280E00F9039
:10011000CF91DF911F910F9108958CE087BB18BAA2
:1001200066B380E090E040E028E532E00E943E00C7
:100130008111C29A66B381E090E041E028E532E0A7
:100140000E943E00882311F0C39AEACF88B318BA00
:0801500088B3E5CFF894FFCF5E
:00000001FF
