:100000000C942A000C9434000C9434000C943400AA
:100010000C9434000C9434000C9434000C94340090
:100020000C9434000C9434000C9434000C94340080
:100030000C9434000C9434000C9434000C94340070
:100040000C9434000C9434000C9434000C94340060
:100050000C94340011241FBECFE5D8E0DEBFCDBF25
:100060000E9436000C9467000C940000B89A88B384
:1000700091E0892788BBBA9AB998C19A40E050E0CC
:1000800080E090E020E030E071E064E004C040E017
:1000900050E020E030E0B19913C00196E2E08935EC
:1000A0009E07CCF341155105B1F788B3872788BB6C
:1000B00088B3862788BB41E050E080E090E0EBCF3A
:1000C0002F5F3F4FE2E029353E070CF7E4CFF8946D
:0200D000FFCF60
:00000001FF
