:100000000C942A000C9434000C9434000C943400AA
:100010000C9434000C9434000C9434000C94340090
:100020000C9434000C9434000C9434000C94340080
:100030000C9434000C9434000C9434000C94340070
:100040000C9434000C9434000C9434000C94340060
:100050000C94340011241FBECFE5D8E0DEBFCDBF25
:100060000E9436000C9469000C9400001F938FE7E7
:1000700087BB18BA81BB12BA8EB583608EBDA1E072
:10008000B0E0E1E0F0E040E050E0742F20E030E04C
:10009000622F8CB59DB5895B9840D8F31DBC1CBC04
:1000A000CD0102C0880F991F6A95E2F788BB2F5FC8
:1000B0003F4F2730310561F7CF0102C0880F991FEC
:1000C0007A95E2F782BB4F5F5F4F47305105D9F217
:0600D000DCCFF894FFCF25
:00000001FF
