:100000000C942A000C943C000C943C000C943C0092
:100010000C943C000C943C000C943C000C943C0070
:100020000C943C000C943C000C943C000C943C0060
:100030000C943C000C943C000C943C000C943C0050
:100040000C943C000C943C000C943C000C943C0040
:100050000C943C0011241FBECFE5D8E0DEBFCDBF1D
:1000600010E0A0E6B0E001C01D92A037B107E1F7B3
:100070000E94B0000C9404010C940000BC01AC017F
:10008000440F551FFA01E05AFF4F8081918101967C
:1000900091838083895592400CF461C0FA01E8593C
:1000A000FF4F80819181892B09F055C021E030E01C
:1000B00031832083FA01E459FF4F408151814F5F22
:1000C0005F4F518340836115710551F488B3042E4D
:1000D00002C0220F331F0A94E2F7822B88BB0DC0A7
:1000E0006130710551F422B3CB01042E02C0880F98
:1000F000991F0A94E2F7282B22BB473051055CF187
:1001000020E030E0F0E840E25EE4EFEF61157105D9
:1001100011F4F8BB04C06130710509F4F2BBCA01E7
:100120000197F1F76115710511F4E8BB04C0613066
:10013000710509F4E2BBCA010197F1F72F5F3F4F48
:100140002A30310519F710926D0010926C00109250
:100150006F0010926E00109261001092600008957E
:100160008FE787BB81BB80E888BB82BBB79905C09E
:1001700080E090E00E943E0014C080916400909165
:1001800065000196909365008093640089559240C4
:1001900044F010926900109268001092650010926D
:1001A0006400B79905C081E090E00E943E00DECF78
:1001B000809166009091670001969093670080930C
:1001C00066008955924094F210926B0010926A007A
:1001D0001092670010926600C9CFFC01EE0FFF1F5E
:1001E000DF01AC59BF4F8D919C91119701961196EB
:1001F0009C938E938955924034F0E859FF4F1182B9
:0C02000010821D921C920895F894FFCF0C
:00000001FF
