:100000000C942A000C9434000C9434000C943400AA
:100010000C9434000C9434000C9434000C94340090
:100020000C9434000C9434000C9434000C94340080
:100030000C9434000C9434000C9434000C94340070
:100040000C9434000C9434000C9434000C94340060
:100050000C94340011241FBECFE5D8E0DEBFCDBF25
:100060000E9436000C9450000C9400008FEF81BB6E
:100070008FB5826C8FBD8EB589618EBD80EF95E5A1
:1000800097BD86BD86B597B580529E449BBD8ABDFF
:10009000F9CF26B537B5281B390B3BBD2ABD0895CE
:0400A000F894FFCF02
:00000001FF
